:1000000012C06BC17BC11FC01EC01DC017C11BC069
:100010001AC0B8C018C017C016C015C014C013C08D
:1000200012C011C010C011241FBECFE5D4E0DEBF46
:10003000CDBF20E0A0E6B0E001C01D92A936B20716
:10004000E1F743D19AC1DCCF81B38FEF81BB92B38B
:1000500092BB94B384BB85B385BB81B38B7F81BBDB
:1000600081118B9882B38B7F82BB81119398089505
:1000700080B7816080BF89B7816089BF8CE982BF0A
:1000800083B7826083BF089589B7806189BF8EB5C9
:1000900088608EBD8EB584608EBD84E39CE09BBD80
:1000A0008ABD1DBC1CBC0895979A98E0882314F45F
:1000B000959A01C09598979A880F9698969A91501C
:1000C000A9F70895FC018081813099F0823099F080
:1000D000833099F0843099F0853099F0863099F02A
:1000E000873099F0883099F0893099F0882399F019
:1000F000089589EF089584EA089580EB089589E9C9
:10010000089582E9089582E8089588EF089580E8C7
:10011000089580E9089580EC08952091650030915C
:100120006600C90168EE73E001D160936800C901FF
:1001300064E670E0FBD0CB016AE070E0F7D080931A
:100140006400209163008DEC289F912D11249695D9
:1001500096959695989F812D1124869586958695DE
:10016000880F382F330F330F830F392F381B3093FD
:100170006700990F892F880F880F980F291B2093EC
:10018000620008951F920F920FB60F9211242F93C1
:100190003F934F935F936F937F938F939F93AF930F
:1001A000BF93EF93FF9380916000811108C09098F6
:1001B0009198AB98949A82E690E084DF75DF809105
:1001C0006000813041F4909891989498AB9A87E6BA
:1001D00090E078DF69DF80916000823041F4909890
:1001E000AB989498919A84E690E06CDF5DDF809103
:1001F0006000833041F49198AB989498909A88E687
:1002000090E060DF51DF809160008F5F843018F4F0
:100210008093600002C010926000FF91EF91BF9147
:10022000AF919F918F917F916F915F914F913F918E
:100230002F910F900FBE0F901F9018951F920F9245
:100240000FB60F9211242F938F939F93809161008B
:100250008F5F8C3318F48093610007C010926100A7
:10026000809163008F5F80936300809163008C3383
:1002700060F01092630080916500909166008C5947
:100280009F4F9093660080936500809165009091E8
:1002900066008D3F984024F0109266001092650031
:1002A0009F918F912F910F900FBE0F901F901895D7
:1002B0008BB780648BBF85B7826085BF8BB7806842
:1002C0008BBF85B7886085BF0895F894BDDED0DE0A
:1002D000DBDEEEDF789421DFFECF1F920F920FB6A8
:1002E0000F9211248F93809163008F5F809363003E
:1002F0008F910F900FBE0F901F9018951F920F9225
:100300000FB60F9211248F939F9380916500909167
:1003100066008C599F4F90936600809365009F9173
:100320008F910F900FBE0F901F90189597FB072E7F
:1003300016F4009406D077FD08D00BD007FC05D04A
:100340003EF4909581959F4F0895709561957F4FEC
:100350000895AA1BBB1B51E107C0AA1FBB1FA6170C
:10036000B70710F0A61BB70B881F991F5A95A9F75E
:0E03700080959095BC01CD010895F894FFCFC3
:00000001FF
