:1000000012C055C175C11FC01EC01DC00FC11BC08D
:100010001AC0B0C018C017C016C015C014C013C095
:1000200012C011C010C011241FBECFE5D4E0DEBF46
:10003000CDBF20E0A0E6B0E001C01D92A936B20716
:10004000E1F74DD194C1DCCF81B38FEF81BB82B397
:1000500082BBA39AAB988A9892988B9893980895AC
:1000600080B7816080BF89B7816089BF8CE982BF1A
:1000700083B7826083BF089589B7806189BF8EB5D9
:1000800088608EBD8EB584608EBD84E39CE09BBD90
:100090008ABD1DBC1CBC0895979A98E0882314F46F
:1000A000959A01C09598979A880F9698969A91502C
:1000B000A9F70895FC018081813099F0823099F090
:1000C000833099F0843099F0853099F0863099F03A
:1000D000873099F0883099F0893099F0882399F029
:1000E000089589EF089584EA089580EB089589E9D9
:1000F000089582E9089582E8089588EF089580E8D8
:10010000089580E9089580EC08952091650030916C
:100110006600C90168EE73E003D160936200C90113
:1001200064E670E0FDD0CB016AE070E0F9D0809326
:100130006000209163008DEC289F912D11249695ED
:1001400096959695989F812D1124869586958695EE
:10015000880F382F330F330F830F392F381B30930D
:100160006700990F892F880F880F980F291B2093FC
:10017000680008951F920F920FB60F9211242F93CB
:100180003F934F935F936F937F938F939F93AF931F
:10019000BF93EF93FF9380916400811108C0909802
:1001A0009198AB98949A88E690E084DF75DF80910F
:1001B0006400813041F4909891989498AB9A87E6C6
:1001C00090E078DF69DF80916400823041F490989C
:1001D000AB989498919A80E690E06CDF5DDF809117
:1001E0006400833041F49198AB989498909A82E699
:1001F00090E060DF51DF809164008F5F843018F4FD
:100200008093640002C010926400FF91EF91BF914F
:10021000AF919F918F917F916F915F914F913F919E
:100220002F910F900FBE0F901F9018951F920F9255
:100230000FB60F9211242F938F939F93809161009B
:100240008F5F8C3318F48093610007C010926100B7
:10025000809163008F5F80936300809163008C3393
:1002600060F01092630080916500909166008C5957
:100270009F4F9093660080936500809165009091F8
:1002800066008D3F984024F0109266001092650041
:100290009F918F912F910F900FBE0F901F901895E7
:1002A0008BB780648BBF85B7826085BF08951F922E
:1002B0000F920FB60F9211248F93809163008F5F7E
:1002C000809363008F910F900FBE0F901F90189531
:1002D0008BB780688BBF85B7886085BF0895F89419
:1002E000B3DEBEDEC9DEF4DFDBDF78940EDFFECFE7
:1002F0001F920F920FB60F9211248F939F938091AC
:100300006500909166008C599F4F90936600809392
:1003100065009F918F910F900FBE0F901F901895C1
:1003200097FB072E16F4009406D077FD08D00BD06B
:1003300007FC05D03EF4909581959F4F08957095E8
:1003400061957F4F0895AA1BBB1B51E107C0AA1FEF
:10035000BB1FA617B70710F0A61BB70B881F991F66
:100360005A95A9F780959095BC01CD010895F89410
:02037000FFCFBD
:00000001FF
